{
  "contractName": "CWAMinter",
  "abi": [
    {
      "anonymous": false,
      "inputs": [
        {
          "indexed": true,
          "internalType": "address",
          "name": "_to",
          "type": "address"
        },
        {
          "indexed": true,
          "internalType": "uint256",
          "name": "_tokenId",
          "type": "uint256"
        },
        {
          "indexed": false,
          "internalType": "string",
          "name": "_ipfsHash",
          "type": "string"
        }
      ],
      "name": "Mint",
      "type": "event"
    },
    {
      "anonymous": false,
      "inputs": [
        {
          "indexed": true,
          "internalType": "address",
          "name": "_from",
          "type": "address"
        },
        {
          "indexed": true,
          "internalType": "address",
          "name": "_to",
          "type": "address"
        },
        {
          "indexed": true,
          "internalType": "uint256",
          "name": "_tokenId",
          "type": "uint256"
        }
      ],
      "name": "Transfer",
      "type": "event"
    },
    {
      "inputs": [
        {
          "internalType": "address",
          "name": "_to",
          "type": "address"
        },
        {
          "internalType": "string",
          "name": "_ipfsHash",
          "type": "string"
        }
      ],
      "name": "mint",
      "outputs": [],
      "stateMutability": "nonpayable",
      "type": "function"
    },
    {
      "inputs": [
        {
          "internalType": "address",
          "name": "_to",
          "type": "address"
        },
        {
          "internalType": "uint256",
          "name": "_tokenId",
          "type": "uint256"
        }
      ],
      "name": "transfer",
      "outputs": [],
      "stateMutability": "nonpayable",
      "type": "function"
    }
  ],
  "bytecode": "0x6080604052600160005534801561001557600080fd5b50610634806100256000396000f3fe608060405234801561001057600080fd5b50600436106100365760003560e01c8063a9059cbb1461003b578063d0def52114610057575b600080fd5b61005560048036038101906100509190610348565b610073565b005b610071600480360381019061006c91906102ec565b61018f565b005b6001600082815260200190815260200160002060009054906101000a900473ffffffffffffffffffffffffffffffffffffffff1673ffffffffffffffffffffffffffffffffffffffff163373ffffffffffffffffffffffffffffffffffffffff16146100de57600080fd5b816001600083815260200190815260200160002060006101000a81548173ffffffffffffffffffffffffffffffffffffffff021916908373ffffffffffffffffffffffffffffffffffffffff160217905550808273ffffffffffffffffffffffffffffffffffffffff163373ffffffffffffffffffffffffffffffffffffffff167fddf252ad1be2c89b69c2b068fc378daa952ba7f163c4a11628f55a4df523b3ef60405160405180910390a45050565b600080549050826001600083815260200190815260200160002060006101000a81548173ffffffffffffffffffffffffffffffffffffffff021916908373ffffffffffffffffffffffffffffffffffffffff1602179055506000808154809291906101f990610504565b9190505550808373ffffffffffffffffffffffffffffffffffffffff167f85a66b9141978db9980f7e0ce3b468cebf4f7999f32b23091c5c03e798b1ba7a8460405161024591906103c1565b60405180910390a3505050565b600061026561026084610408565b6103e3565b905082815260208101848484011115610281576102806105b0565b5b61028c848285610491565b509392505050565b6000813590506102a3816105d0565b92915050565b600082601f8301126102be576102bd6105ab565b5b81356102ce848260208601610252565b91505092915050565b6000813590506102e6816105e7565b92915050565b60008060408385031215610303576103026105ba565b5b600061031185828601610294565b925050602083013567ffffffffffffffff811115610332576103316105b5565b5b61033e858286016102a9565b9150509250929050565b6000806040838503121561035f5761035e6105ba565b5b600061036d85828601610294565b925050602061037e858286016102d7565b9150509250929050565b600061039382610439565b61039d8185610444565b93506103ad8185602086016104a0565b6103b6816105bf565b840191505092915050565b600060208201905081810360008301526103db8184610388565b905092915050565b60006103ed6103fe565b90506103f982826104d3565b919050565b6000604051905090565b600067ffffffffffffffff8211156104235761042261057c565b5b61042c826105bf565b9050602081019050919050565b600081519050919050565b600082825260208201905092915050565b600061046082610467565b9050919050565b600073ffffffffffffffffffffffffffffffffffffffff82169050919050565b6000819050919050565b82818337600083830152505050565b60005b838110156104be5780820151818401526020810190506104a3565b838111156104cd576000848401525b50505050565b6104dc826105bf565b810181811067ffffffffffffffff821117156104fb576104fa61057c565b5b80604052505050565b600061050f82610487565b91507fffffffffffffffffffffffffffffffffffffffffffffffffffffffffffffffff8214156105425761054161054d565b5b600182019050919050565b7f4e487b7100000000000000000000000000000000000000000000000000000000600052601160045260246000fd5b7f4e487b7100000000000000000000000000000000000000000000000000000000600052604160045260246000fd5b600080fd5b600080fd5b600080fd5b600080fd5b6000601f19601f8301169050919050565b6105d981610455565b81146105e457600080fd5b50565b6105f081610487565b81146105fb57600080fd5b5056fea264697066735822122070a46296f92d385dce19089928129318096c651d0f745cbf731197bc4c4189f264736f6c63430008070033",
  "immutableReferences": {},
  "source": "// SPDX-License-Identifier: Apache-2.0\r\n\r\npragma solidity ^0.8.4;\r\n\r\ncontract CWAMinter {\r\n    event Mint(address indexed _to, uint256 indexed _tokenId, string _ipfsHash);\r\n    event Transfer(address indexed _from, address indexed _to, uint256 indexed _tokenId);\r\n\r\n    uint256 tokenCounter = 1;\r\n    mapping(uint256 => address) internal idToOwner;\r\n\r\n    function mint(address _to, string memory _ipfsHash) public {\r\n        uint256 _tokenId = tokenCounter;\r\n        idToOwner[_tokenId] = _to;\r\n        tokenCounter++;\r\n        emit Mint(_to, _tokenId, _ipfsHash);\r\n    }\r\n\r\n    function transfer(address _to, uint256 _tokenId) public {\r\n        require(msg.sender == idToOwner[_tokenId]);\r\n        idToOwner[_tokenId] = _to;\r\n        emit Transfer(msg.sender, _to, _tokenId);\r\n    }\r\n}",
  "sourcePath": "E:\\VSCO\\blockchain-tutorial\\contracts\\CWAMinter.sol",
  "compiler": {
    "name": "solc",
    "version": "0.8.7+commit.e28d00a7.Emscripten.clang"
  },
  "schemaVersion": "3.4.3",
  "updatedAt": "2021-09-12T04:22:03.438Z",
  "networkType": "ethereum",
  "devdoc": {
    "kind": "dev",
    "methods": {},
    "version": 1
  },
  "userdoc": {
    "kind": "user",
    "methods": {},
    "version": 1
  }
}